:020000040800F2
:10000000A80F0020A50F000875030008770300085B
:100010007B0300087F030008830300080000000042
:10002000000000000000000000000000870300083E
:1000300089030008000000008B0300088D030008FE
:10004000BF0F0008BF0F0008BF0F0008BF0F000858
:10005000BF0F0008BF0F0008BF0F0008BF0F000848
:10006000BF0F0008BF0F0008BF0F0008BF0F000838
:10007000BF0F0008BF0F0008BF0F0008BF0F000828
:10008000BF0F0008BF0F0008BF0F0008BF0F000818
:10009000BF0F0008BF0F0008BF0F0008BF0F000808
:1000A000BF0F0008BF0F0008BF0F0008BF0F0008F8
:1000B000BF0F000857080008BF0F0008BF0F000857
:1000C000BF0F0008BF0F0008BF0F0008BF0F0008D8
:1000D000BF0F00081B0F0008BF0F0008BF0F00086C
:1000E000BF0F0008BF0F0008BF0F0008BF0F0008B8
:1000F000BF0F0008BF0F0008BF0F0008BF0F0008A8
:10010000BF0F0008BF0F0008BF0F0008BF0F000897
:10011000BF0F0008BF0F0008BF0F0008BF0F000887
:10012000BF0F0008BF0F0008BF0F0008BF0F000877
:1001300000F002F800F05FF80AA090E8000C82449A
:100140008344AAF10107DA4501D100F054F8AFF277
:10015000090EBAE80F0013F0010F18BFFB1A43F0A5
:100160000103184704820000248200000A444FF073
:10017000000C10F8013B13F0070408BF10F8014B06
:100180001D1108BF10F8015B641E05D010F8016B4B
:10019000641E01F8016BF9D113F0080F1EBF10F8AF
:1001A000014BAD1C0C1B09D16D1E58BF01F801CBD2
:1001B000FAD505E014F8016B01F8016B6D1EF9D555
:1001C0009142D6D37047000000230024002500266A
:1001D000103A28BF78C1FBD8520728BF30C148BFAA
:1001E0000B607047642905F02B87002070471FB50E
:1001F0001FBD10B510BD06F0BFF81146FFF7F7FFA1
:1002000000F06EF806F0DDF803B4FFF7F2FF03BC70
:1002100000F028FE10B54A4800784A49087048485E
:100220004078487028208870A520C8701020087178
:100230004348007848714248407888710320C8716B
:10024000CC200872FF2048728872C8720846007974
:100250000938C1B201223B4800F0A9FC3A490880A4
:1002600008460088001237490873374800784873F9
:100270005A2088732920C8730B203449087010BD98
:100280001EB5334B1A681B1D19681B1D1868D3B2A5
:100290008DF80030130A8DF80130130C8DF8023000
:1002A000130E8DF80330CBB28DF804300B0A8DF8A5
:1002B00005300B0C8DF806300B0E8DF80730C3B2ED
:1002C0008DF80830030A8DF80930030C8DF80A30D8
:1002D000030E8DF80B30030A194C237060701EBD9D
:1002E00000F01EFBFFF7CCFF1AA005F069FE03F03B
:1002F000C3F900F0B1FC1D480078552802D0FFF783
:1003000089FF06E019488078194908701748C078B5
:10031000487014E004F0CBFD022804D0042805D076
:1003200009280BD105E000F024FB07E003F0A4F955
:1003300004E00448017900F00AFB00BF00BFE9E7D0
:10034000000000200B04002032000020E802002002
:10035000E8F7FF1F4C6F5261CDA8D0C5BFAACABC39
:100360002E2E2E2E2E2E0D0A00000000350200200B
:1003700002000020704700BFFEE700BFFEE700BF9D
:10038000FEE700BFFEE77047704770477047000008
:100390000CB50020019000906C48006840F480305B
:1003A0006A49086000BF6948006800F400300090A6
:1003B0000198401C0190009818B90198B0F5A06F01
:1003C000F1D16248006800F4003010B101200090C3
:1003D00001E0002000900098012843D15C480068AB
:1003E00040F010005A4908600846006820F00300F9
:1003F00008600846006840F0020008605348406802
:10040000524948600846406848600846406840F4E1
:10041000806048600846406820F47C1048600846C8
:10042000406840F4E81048600846006840F080707A
:10043000086000BF4548006800F000700028F9D04F
:100440004248406820F00300404948600846406840
:1004500040F00200486000BF3C48406800F00C00DB
:100460000828F9D10CBD10B5FFF792FF10BD10B5EB
:100470003648006840F0010034490860084640688A
:10048000344908403149486008460068324908400C
:100490002E4908600846006820F48020086008465D
:1004A000406820F4FE0048604FF41F008860FFF7AA
:1004B000DAFF4FF000602949086010BD10B5002137
:1004C00000200022214B5B6803F00C0121B10429BC
:1004D00006D0082928D107E0214B224C236027E0D1
:1004E0001F4B204C236023E0184B5B6803F4701013
:1004F000164B5B6803F48032022303EB904022B971
:10050000194B4343174C23600DE0104B5B6803F419
:10051000003323B1144B4343124C236003E0104BD0
:100520004343104C236003E00D4B0E4C236000BF8F
:1005300000BF064B5B68C3F303130C4CE15C094B33
:100540001B68CB40074C236010BD00000010024028
:10055000002002400000FFF8FFFFF6FE08ED00E07B
:1005600000127A000400002000093D00080000206D
:1005700008B50121042001F0BFF80720ADF8000004
:1005800010208DF8030003208DF8020069460C4806
:1005900000F0F6FD07210A4800F0A1FE08BD10B5E5
:1005A00000224FF40051074800F09BFE642000F049
:1005B0002CFC01225103034800F093FE10BD000003
:1005C000000801400010014008B50121042001F09D
:1005D00093F84FF40E70ADF8000048208DF803003A
:1005E00069463D4800F0CCFD08BD10B5044614B185
:1005F00001203A4908703948007848B3202136482C
:1006000000F051FE48B11021334800F04CFE20B1FB
:100610000821314800F047FED0B90A2000F0F5FB70
:1006200000202E49087020212B4800F03CFE08B91C
:10063000012010BD1021284800F035FE08B9022025
:10064000F7E70821244800F02EFEA8B90320F0E7C0
:100650002021214800F027FE01280DD110211E483D
:1006600000F021FE012807D108211B4800F01BFEE5
:10067000012801D1194908700020DAE710B54FF4BC
:100680000071154800F00FFE28B915480068401C9D
:10069000134908601DE012480068032807D310487A
:1006A0000068642803D800200D49086011E00C4858
:1006B0000068B0F5967F08D3002009490860FF2044
:1006C0000849087000F0D9FA03E0002004490860E6
:1006D00010BD00BFFCE70000000801401C00002026
:1006E000180000203502002070B50546002405E002
:1006F000601CC4B2C82C01DD002070BD02213D4841
:1007000001F0ADF90028F3D029463A4801F054F938
:10071000002405E0601CC4B2C82C01DD0020ECE719
:100720000121344801F09BF90028F3D0314801F051
:1007300045F9C0B2E1E700B587B00121082000F01B
:10074000DBFF0121880300F0E4FF4FF46040ADF8C7
:10075000180018208DF81B0003208DF81A0006A938
:10076000254800F00DFD4FF46041234800F0B5FD31
:100770000020ADF804004FF48270ADF806000020B0
:10078000ADF808000220ADF80A000120ADF80C0019
:100790004002ADF80E003820ADF810000020ADF892
:1007A00012000720ADF8140001A9124801F02EF83C
:1007B0000121104801F0CFF8FF20FFF795FF07B0A7
:1007C00000BD10B504460B4800884FF6C7710840BD
:1007D0000849088008460088204308800121054810
:1007E00001F0B9F810BD10B504462046FFF77CFFB4
:1007F00010BD000000380040000C01407FB50546E8
:100800000C460121022000F084FFADF80850ADF83D
:1008100004400020ADF80A00ADF8060001A93B48ED
:1008200001F02CFC01221146384801F09EFF1D20EA
:100830008DF8000000208DF8010003208DF80200E3
:1008400001208DF80300684600F0D1FB01212F48FC
:1008500001F070FF7FBD10B501212C4802F033FA82
:10086000002852D02A480078401C2949087029489D
:100870000068401C274908602548007805283ED1BB
:10088000002023490870FFF7B0FE2349087008468E
:100890000078012804D0022811D003282DD11DE0B2
:1008A00004211E4800F00CFDC0F10100C4B2224634
:1008B00004211A4800F015FD00F003FA1EE00221A1
:1008C000164800F0FDFCC0F10100C4B2224602212E
:1008D000124800F006FD00F0F4F90FE001210F4886
:1008E00000F0EEFCC0F10100C4B2224601210B4829
:1008F00000F0F7FC00F0E5F900E000BF00BFFFF7F3
:10090000BDFE0121014802F0EFF910BD00040040D6
:100910001E0000205C0200201D0000200008014095
:1009200010B54FF4A06000F05DFB00F031FA4FF419
:10093000E13000F0A6FAFFF71BFEFFF745FE41F697
:100940001F410A20FFF75AFF02F01EFE10BD70B5CE
:1009500005460E46002400BF04E0285D7249085594
:10096000601CC4B2B442F8DB31466F4804F086FA2A
:1009700070BD70B500246D496D4804F070FA6B4885
:10098000008800287EDD6A4840796A4909788842F3
:1009900078D167488079674949788842F8D16348B7
:1009A0000088001F6249085C634908800846008887
:1009B0004FF6FF7101EA00205F4908805B4800881C
:1009C000C01E5B49085C5C49098808435A49088095
:1009D000564800780938C1B20122554800F0E7F8BE
:1009E0000546524800780938C1B20122504800F04B
:1009F000DEF851490988884272D100F02DF94C483F
:100A0000007ADD2815D155204C490870FF20487028
:100A100047480078887046484078C8704448007855
:100A20004749087042484078487000F026F9FFF7BF
:100A3000B6FD3F48007AAA280CD13D48407A48B913
:100A40003E480078552805D1012204213D4800F098
:100A500048FC10E03648007AAA280CD13448407A85
:100A6000FF2808D135480078552804D100220421F8
:100A7000344800F036FC2E48007AAA280ED12C48C3
:100A8000807A00E04EE048B92C480078552805D11E
:100A9000012202212B4800F024FC10E02448007AB7
:100AA000AA280CD12248807AFF2808D12348007850
:100AB000552804D100220221224800F012FC1C48D3
:100AC000007AAA280DD11A48C07A50B91B4800787C
:100AD000552806D1012211461A4800F002FC11E007
:100AE00012E01348007AAA280CD11148C07AFF28D6
:100AF00008D112480078552804D10022012111485C
:100B000000F0EFFB00F0DDF8002404E000200849CD
:100B10000855601CC4B2054800888442F6DB0020FA
:100B20000249088070BD00000A0500203000002046
:100B30000C030020000000203200002035020020BD
:100B4000020000200008014070B502460C46FF2557
:100B5000FF2309E012F8010B80EA05013B48405CE5
:100B600080EA03053A48435C201EA4F10106F4B272
:100B7000F0D143EA052070BD30B5002314E001F048
:100B8000800400F4004584EA25242CB14FF6FF745C
:100B900004EA4000504003E04FF6FF7404EA4000CE
:100BA0004C06210E5C1CE3B2082BE8DB30BD2DE9BE
:100BB000F04306460F4614460025A846A946012CD8
:100BC00002D148F2050001E041F221008146012CEA
:100BD00002D14FF6FF7001E041F60F50804600252C
:100BE00008E0681D315C4A464046FFF7C5FF804675
:100BF000681CC5B2BD42F4DB012C02D14046BDE801
:100C0000F0836FEA080080B2F9E7F0B502460B46C0
:100C10004FF00047F817002415E012F8015B80211F
:100C20000EE000EA0706400005EA010CBCF1000FE7
:100C300000D07E401EB1DFF81CC080EA0C004908DD
:100C40000029EED1641C9C42E7D3F0BD34000020A3
:100C500034010020B71DC1040020002100BF09E0BD
:100C6000144A0A4492F8002C134B1A540A1DD1B2AC
:100C7000421CD0B20428F3DB704770B50024002575
:100C800002F055F8352002F0EDFA0C4802F094F825
:100C900000BF09E0084A115D084AA81802F05CF993
:100CA000281DC5B2601CC4B2042CF3DB02F04BF863
:100CB00070BD000000F000083502002000FC0008B4
:100CC000704710B52C4800782C4908702A484078A5
:100CD000487028208870A520C87010200871284806
:100CE000007848712648407888710320C871BB207D
:100CF00008720421234800F0D6FA18B9FF201F49D2
:100D0000487202E000201D49487202211D4800F08F
:100D1000CAFA18B9FF201949887202E00020174961
:100D200088720121174800F0BEFA18B9FF20134954
:100D3000C87202E000201149C872104800790938D1
:100D4000C1B201220D48FFF732FF0F490880084663
:100D500000880012094908730B48007848735A202C
:100D600088732920C8730B200849087010BD10B57E
:100D7000FFF772FF10BD0000020000200B040020EE
:100D8000000000200008014032000020E80200209E
:100D900010B56FF0040000F074F92E4800682E4979
:100DA000B0FBF1F02D4908700846007800EB4001D7
:100DB000C1EBC0104FF6FF7101EAC000284908805E
:100DC00010BD0146254A12784A434FF0E0235A618C
:100DD00000229A611A46126942F001021A6100BFAC
:100DE0004FF0E022106900F001021AB100F48032E5
:100DF000002AF5D04FF0E022126922F001024FF0F4
:100E0000E0231A6100229A6170470146144A128851
:100E10004A434FF0E0235A6100229A611A46126950
:100E200042F001021A6100BF4FF0E022106900F0A9
:100E300001021AB100F48032002AF5D04FF0E0220E
:100E4000126922F001024FF0E0231A6100229A6138
:100E5000704700000400002000127A003A020020CF
:100E60003C020020014600BF704700BF494A12887B
:100E700002F04002002AF9D0C2B2464B1B1D1A8074
:100E8000704710B586B00446012144F2040000F01A
:100E900033FC4FF40070ADF8140003208DF81600F9
:100EA00018208DF8170005A93B4800F069F94FF4A8
:100EB0008060ADF8140004208DF8170005A93648AD
:100EC00000F05EF925208DF8000000208DF801006B
:100ED00001208DF802008DF80300684600F087F8C5
:100EE00001940020ADF80800ADF80A00ADF80C0040
:100EF000ADF810000C20ADF80E0001A9254800F057
:100F000028FE012240F22551224800F0BAFE0121BC
:100F1000204800F0AAFE06B010BD10B540F22551E1
:100F20001C4800F093FF10B31A4800F00FFFC4B242
:100F30001A48008800F40040C8B91848008800F436
:100F4000804060B10A2C03D000201449088020E0C2
:100F50001248008840F400401049088019E00D2C28
:100F600006D10E48008840F480400C49088010E00B
:100F70000A480088C0F30D0009490C54074800884E
:100F8000401C0649088008460088C72801DD00206B
:100F9000088010BD003801400008014044020020D4
:100FA000090600200948804709480047FEE7FEE798
:100FB000FEE7FEE7FEE7FEE7FEE7FEE7FEE7FEE709
:100FC00004480549054A064B704700006F040008B5
:100FD00031010008A8090020A80F0020A80B00205C
:100FE000A80B002031490143314A1160704770B5A8
:100FF000002100230F22C47804B32D4C246804F48C
:10100000E064C4F5E064210AC1F10403CA404478F5
:1010100004FA03F18478144021430901254C067831
:10102000A155047804F01F050124AC4005786D112A
:10103000AD0005F1E025C5F8004109E0047804F0B1
:101040001F050124AC401C4D0678761145F826405A
:1010500070BD1A4A0A400243154B1B1F1A607047A5
:1010600039B1134A121D12680243114B1B1D1A603D
:1010700006E00F4A121D126882430D4B1B1D1A60B9
:101080007047042808D14FF0E021096941F00401BC
:101090004FF0E022116107E04FF0E021096921F0F3
:1010A00004014FF0E0221161704700000000FA05D2
:1010B0000CED00E000E400E080E100E080FFFF1FB5
:1010C00010B50446CC48844208D10121042000F028
:1010D0002DFB0021042000F029FB46E0C748844294
:1010E00008D10121082000F021FB0021082000F098
:1010F0001DFB3AE0C248844208D10121102000F0D3
:1011000015FB0021102000F011FB2EE0BD488442A9
:1011100008D10121202000F009FB0021202000F04F
:1011200005FB22E0B848844208D10121402000F0AC
:10113000FDFA0021402000F0F9FA16E0B34884429D
:1011400008D10121802000F0F1FA0021802000F078
:10115000EDFA0AE0AE48844207D10121801500F083
:10116000E5FA0021A01500F0E1FA10BD10B501214B
:10117000084600F0DBFA0021012000F0D7FA10BD8C
:101180002DE9F0410246002500260020002300241E
:10119000002791F803C00CF00F0591F803C00CF084
:1011A000100CBCF1000F03D091F802C04CEA050509
:1011B00091F800C0BCF1000F31D0146800202BE082
:1011C0004FF0010C0CFA00F3B1F800C00CEA030672
:1011D0009E4220D183004FF00F0C0CFA03F7BC4362
:1011E00005FA03FC4CEA040491F803C0BCF1280F93
:1011F00006D14FF0010C0CFA00FCC2F814C00AE052
:1012000091F803C0BCF1480F05D14FF0010C0CFA66
:1012100000FCC2F810C0401C0828D1D31460B1F8FB
:1012200000C0BCF1FF0F34DD546800202EE000F157
:10123000080C4FF0010808FA0CF3B1F800C00CEAF2
:1012400003069E4221D183004FF00F0C0CFA03F7E6
:10125000BC4305FA03FC4CEA040491F803C0BCF15A
:10126000280F05D100F1080C08FA0CF8C2F8148018
:1012700091F803C0BCF1480F07D100F1080C4FF002
:10128000010808FA0CF8C2F81080401C0828CED3D8
:101290005460BDE8F0814FF6FF710180022181703A
:1012A0000421C17070470246002093680B400BB1C7
:1012B000012000E0002070470146886880B2704736
:1012C00002460020D3680B400BB1012000E0002053
:1012D00070470146C86880B270470161704741613C
:1012E00070470AB1016100E041617047C160704719
:1012F0004FF480320A43826181618261826982692E
:10130000704702460020434B18684FF68073184020
:1013100040EA021008433F4B186070473E49C861DD
:101320007047F0B50A46002300240021002500F094
:101330000046B6F1004F02D1364EF16901E0354E5C
:101340007168C0F3034583B200F44016B6F5401F40
:1013500008D121F070612F4E766826F070662D4F0F
:101360007E6012E000F48016B6F5801F06D10326D9
:1013700006FA05F4A14341F0706106E0460D36011E
:1013800003FA06F6B14341F0706122B1460D360111
:1013900003FA06F6314300F00046B6F1004F02D1E1
:1013A0001C4EF16101E01B4E7160F0BD30B50022B2
:1013B0008B071C0F0F2303FA04F2164B08338C1013
:1013C00053F824309343134C08348D1044F82530DF
:1013D00023468C1053F824308C07240F00FA04F4B1
:1013E00023430C4C08348D1044F8253030BD0A4995
:1013F000DC3108607047000000080140000C01402B
:10140000001001400014014000180140001C014080
:10141000002001400000014000002042DF48006839
:1014200040F00100DD49086008464068DC4908409A
:10143000DA49486008460068DA490840D749086038
:101440000846006820F4802008600846406820F4C0
:10145000FE0048604FF41F0088607047CF4909685C
:1014600021F48031CD4A11601146096821F48021B0
:101470001160B0F5803F03D0B0F5802F0ED106E0AB
:10148000C649096841F48031C44A116007E0C34984
:10149000096841F4A021C14A116000E000BF00BF0B
:1014A000704710B501460022002300204A11012A8E
:1014B00002D1BA4C236806E0022A02D1B74C236A53
:1014C00001E0B64C636A01F01F02012494401C4005
:1014D0000CB1012000E0002010BD38B500200090C4
:1014E0000024002500BF3120FFF7DBFF05460098F0
:1014F000401C00900098B0F5A06F01D0002DF2D0F4
:101500003120FFF7CEFF08B1012400E0002420467F
:1015100038BD01460020A14A106820F0F80040EADA
:10152000C10010607047A049086070470246002063
:101530009A4B586820F47C1042EA01031843974BF9
:101540005860704798490866704701460020934AE2
:10155000506820F003000843506070478F4840688F
:1015600000F00C007047014600208C4A506820F0C3
:10157000F00008435060704701460020874A5068D9
:1015800020F4E06008435060704701460020834A21
:10159000506820F4605040EAC1005060704729B1A3
:1015A0007E4A527A02437D4B5A7204E07B4A527A59
:1015B00082437A4B5A7270477B49D8310860704732
:1015C00001460020754A506820F4404008435060AE
:1015D00070470021714A20321170704A82F8201041
:1015E000012802D004280AD104E001216B4A2032EC
:1015F000117005E00521694A2032117000E000BF3A
:1016000000BF70476949086070476449096A01432F
:10161000624A11627047654944390860704730B5C5
:1016200000210022002400235C4D6D6805F00C01B0
:1016300021B1042905D0082923D105E05C4D0560BE
:1016400022E05B4D05601FE0544D6D6805F470129B
:10165000524D6D6805F48034022505EB92421CB9A9
:10166000544D554305600BE04C4D6D6805F4003555
:101670001DB1504D5543056002E04D4D5543056089
:1016800002E04B4D056000BF00BF444D6D6805F0A2
:10169000F0010909484D6B5C0568DD4045603F4D30
:1016A0006D6805F4E061090A434D6B5C4568DD40F7
:1016B00085603A4D6D6805F46051C90A3E4D6B5C1A
:1016C0004568DD40C560354D6D6805F44041890BC6
:1016D0003A4D6B5CC568B5FBF3F5056130BD29B1CA
:1016E0002E4A526902432D4B5A6104E02B4A52693B
:1016F00082432A4B5A61704729B1284A92690243B2
:10170000264B9A6104E0254A92698243234B9A61F1
:10171000704729B1214AD2690243204BDA6104E0C3
:101720001E4AD26982431D4BDA61704729B11B4AB8
:10173000D2680243194BDA6004E0184AD268824347
:10174000164BDA60704729B1144A12690243134BF1
:101750001A6104E0114A12698243104B1A61704702
:1017600012494039086070470F49C86470470B49F7
:10177000C87170470948406A40F080700749486264
:10178000704701460020054A92680A400AB10120CC
:1017900000E0002070470149887270470010024045
:1017A0000000FFF8FFFFF6FE0000424280044242C4
:1017B00000127A0000093D00460200205602002077
:1017C00010B50446BE48844208D101218014FFF7B9
:1017D000ADFF0021A014FFF7A9FF16E0B94884422D
:1017E00008D101210014FFF7AEFF00212014FFF7FC
:1017F000AAFF0AE0B448844207D10121C013FFF7D1
:10180000A2FF0021E013FFF79EFF10BD10B50022DC
:10181000028802F441520B884C8823438C8823436E
:10182000CC8823430C8923434C8923438C8923434D
:10183000CC8923431A430280838B4FF2FF742340E9
:1018400083830B8A038210BD2DE9F04F85B00546D6
:101850000C464FF0000902274FF000084FF0010B33
:101860000026B246A88B4FF240010840A883022010
:101870002884B5F81C90A068022801D100BF38E088
:10188000A08810B94FF0010B01E04FF0020B8D481A
:10189000854200D100E000BF6846FFF7C0FEDDF8DA
:1018A00000A0E088B0F5007F0AD14FEA1A2000EBD3
:1018B00080004000A168B0FBF1F0401D86B20BE053
:1018C0004FEA4B10BAFBF0F000EB80004000A1683B
:1018D000B0FBF1F0401D86B20A20B6FBF0F606F030
:1018E0000108A6EB0800C0F34F074FF6FF7000EAAF
:1018F0000828022F01DBFF2F02DD02274FF000082E
:10190000E08840EA080038432884A088A189084379
:10191000618808432188084340F4006040EA0909CF
:10192000A5F81C9005B0BDE8F08F00210180418032
:101930008180C180018141818181C1810721018232
:1019400070470021018041808180C1800221816037
:1019500000218181704721B1028842F0400202805B
:1019600004E002884FF6BF731A400280704721B12D
:10197000828B42F48062828304E0828B4FF6FF33D5
:101980001A408283704730B5002400230C110125D2
:10199000A540ABB21AB185881D43858002E08588D9
:1019A0009D43858030BD1AB183880B43838002E05C
:1019B00083888B4383807047818170470146888983
:1019C00070474FF6FF62914204D0028842F4807261
:1019D000028004E002884FF6FF631A4002807047DD
:1019E00021B1828842F00402828004E082884FF6AE
:1019F000FB731A408280704702884FF2FF731A40CF
:101A0000028002880A4302807047018841F48051B5
:101A10000180704721B1028842F40052028004E044
:101A200002884DF6FF731A4002807047024600207C
:101A3000012901D0108B00E0908A70470146088A86
:101A40007047B1F5804F04D1028842F48042028091
:101A500004E002884BF6FF731A400280704702468A
:101A6000002013890B400BB1012000E000207047DB
:101A7000CA4302817047F0B50246002000240023CB
:101A8000002501F00F070126BE40B4B20B1101265C
:101A90009E40B3B2968806EA03051689264016B121
:101AA0000DB1012000E00020F0BD10B5002201F0D2
:101AB0000F040123A3409AB2D343038110BD000059
:101AC0000030014000380040003C004010B50446A2
:101AD000FB48844209D101218803FFF727FE00213A
:101AE0004FF48040FFF722FE32E0F648844209D1ED
:101AF00001214804FFF727FE00214FF40030FFF7D3
:101B000022FE25E0F048844209D101218804FFF734
:101B10001AFE00214FF48020FFF715FE18E0EB4875
:101B2000844209D10121C804FFF70DFE00214FF4C2
:101B30000020FFF708FE0BE0E548844208D10121B0
:101B40000805FFF700FE00214FF48010FFF7FBFDB2
:101B500010BD2DE9F04786B005460E460024A2468A
:101B600000BFA1460027B08900B100BF2F462C8AD4
:101B70004CF6FF700440F08804432C82AC894EF68A
:101B8000F3100440B0883189084371890843044345
:101B9000AC81AC8A4FF6FF400440B0890443AC826C
:101BA00001A8FFF73CFDC648874202D1DDF810A02E
:101BB00001E0DDF80CA0A88900F4004040B10AEB78
:101BC000CA0000EB0A1031684900B0FBF1F807E0E9
:101BD0000AEBCA0000EB0A1031688900B0FBF1F88B
:101BE0006420B8FBF0F004012009642101FB108996
:101BF000A88900F4004040B1322000EBC900B0FBDE
:101C0000F1F000F00700044308E0322000EB091077
:101C10006421B0FBF1F000F00F0004432C8106B00A
:101C2000BDE8F0874FF41651016000218180C1802A
:101C300001810C21418100218181704710B502464C
:101C40000020108A4FF2FF0318400B884C88234372
:101C50008C882343CC8823431843108210BD002175
:101C6000018041808180C180704721B1828942F426
:101C70000052828104E082894DF6FF731A4082810E
:101C80007047F0B50346002400260025002040F6EA
:101C90006A17B94200D100BF1846C1F3421401F0DF
:101CA0001F06012707FA06F5012C01D10C3004E0CC
:101CB000022C01D1103000E014301AB107682F4314
:101CC000076002E00768AF430760F0BD1AB1838A7E
:101CD0000B43838202E0838A8B4383827047028AAC
:101CE0004FF6F0731A400282028A0A43028270475A
:101CF00082894FF2FF731A40828182890A4382816E
:101D0000704721B1828942F00202828104E0828917
:101D10004FF6FD731A4082817047028A4FF6DF73D7
:101D20001A400282028A0A430282704721B1028A63
:101D300042F48042028204E0028A4BF6FF731A40AA
:101D400002827047C1F3080282807047014688888A
:101D5000C0F308007047818941F00101818170471B
:101D6000028BD2B20283028B42EA012202837047C5
:101D7000028B02F47F420283028B0A430283704784
:101D800021B1828A42F02002828204E0828A4FF6E8
:101D9000DF731A408282704721B1828A42F01002BA
:101DA000828204E0828A4FF6EF731A408282704783
:101DB00021B1828A42F00802828204E0828A4FF6D0
:101DC000F7731A408282704721B1828942F400423F
:101DD000828103E08289C2F30E028281704721B1C1
:101DE000828A42F40062828204E0828A4FF2FF73A8
:101DF0001A4082827047828A4FF6FB731A408282B1
:101E0000828A0A438282704721B1828A42F00202AA
:101E1000828204E0828A4FF6FD731A408282704704
:101E200002460020B1F5007F00D100BF13880B40AF
:101E30000BB1012000E00020704701F40072B2F500
:101E4000007F00D100BFCA430280704770B50246D0
:101E5000002400230025002040F66A16B14200D17C
:101E600000BFC1F3421501F01F03012606FA03F378
:101E7000012D02D19689334006E0022D02D1168A47
:101E8000334001E0968A33400C12012606FA04F42E
:101E90001688344013B10CB1012000E0002070BD61
:101EA00010B50022002340F66A14A14200D100BF01
:101EB0000A1201249440A3B2DC43048010BD000048
:101EC000003801400044004000480040004C004001
:101ED0000050004010B50446FE48844208D101215C
:101EE000C014FFF723FC0021E014FFF71FFCC4E03F
:101EF000B4F1804F08D101210846FFF724FC0021EE
:101F00000120FFF720FCB8E0F348844208D101210A
:101F10000220FFF718FC00210220FFF714FCACE0C0
:101F2000EE48844208D101210420FFF70CFC002177
:101F30000420FFF708FCA0E0E948844208D1012111
:101F40000820FFF700FC00210820FFF7FCFB94E0CD
:101F5000E448844208D101211020FFF7F4FB00215E
:101F60001020FFF7F0FB88E0DF48844208D1012110
:101F70002020FFF7E8FB00212020FFF7E4FB7CE0B6
:101F8000DA48844208D101214014FFF7CFFB002139
:101F90006014FFF7CBFB70E0D548844209D10121E2
:101FA000C804FFF7C3FB00214FF40020FFF7BEFB7E
:101FB00063E0D048844209D101210805FFF7B6FB50
:101FC00000214FF48010FFF7B1FB56E0CA4884426D
:101FD00009D101214805FFF7A9FB00214FF40010AA
:101FE000FFF7A4FB49E0C548844208D10121402005
:101FF000FFF7A9FB00214020FFF7A5FB3DE0C0480B
:10200000844208D101218020FFF79DFB0021802020
:10201000FFF799FB31E0BB48844208D101218015CC
:10202000FFF791FB0021A015FFF78DFB25E0B648D7
:10203000844209D101210804FFF778FB00214FF405
:102040008030FFF773FB18E0B048844209D10121CA
:102050004804FFF76BFB00214FF40030FFF766FBED
:102060000BE0AB48844208D101218804FFF75EFBF6
:1020700000214FF48020FFF759FB10BD0022028899
:10208000944B98420ED0994B98420BD0B0F1804FB0
:1020900008D0914B984205D0904B984202D0904B7B
:1020A000984204D14FF68F731A404B881A438D4BD8
:1020B000984207D08C4B984204D04FF6FF431A4009
:1020C000CB881A4302808B8883850B880385814BDC
:1020D00098420BD0854B984208D08B4B984205D044
:1020E0008A4B984202D08A4B984201D10B7A0386E0
:1020F00001238382704770B5002400220023058CE1
:102100004FF6FE7635400584028C8388048B4FF6AB
:102110008F752C40B51E2C400D882C43751E2A400F
:102120000D892A434D882A436A4DA8420BD06F4D32
:10213000A84208D0744DA84205D0744DA84202D0E0
:10214000734DA84213D14FF6F7752A404D892A43A3
:102150004FF6FB752A408D882A434FF6FF652B40CA
:102160004FF6FF552B408D892B43CD892B43838020
:102170000483CD888586028470BD70B5002400225A
:102180000023058C4FF6EF7635400584028C83885A
:10219000048B48F6FF752C404FF6FF452C400D8808
:1021A0004FF6FF7606EA05252C434FF6DF752A40E9
:1021B0000D8906EA05152A434D8806EA05152A43C6
:1021C000444DA84202D0494DA8421DD14FF67F751B
:1021D0002A404D894FF6FF7606EA05152A434FF649
:1021E000BF752A408D8806EA05152A434FF6FF354C
:1021F0002B404FF2FF752B408D8906EA85052B4356
:10220000CD8906EA85052B4383800483CD88058725
:10221000028470BD70B5002400220023058C4FF6A7
:10222000FF6635400584028C8388848B4FF68F755A
:102230002C404FF6FC752C400D882C434FF6FF5573
:102240002A400D894FF6FF7606EA05252A434D8878
:1022500006EA05252A431F4DA84202D0234DA84275
:102260001DD14FF2FF752A404D894FF6FF7606EAE1
:1022700005252A434FF6FF352A408D8806EA0525B5
:102280002A434EF6FF752B404DF6FF752B408D8986
:1022900006EA05152B43CD8906EA05152B438380F5
:1022A0008483CD888587028470BD70B500220023A9
:1022B0000024058C4EF6FF7635400584038C848817
:1022C000828B48F6FF752A404FF6FF452A400D885D
:1022D00020E00000002C0140000400400008004005
:1022E000000C004000100040001400400034014089
:1022F000004C0140005001400054014000180040D3
:10230000001C00400020004000400140004401400B
:10231000004801404FF6FF7606EA05252A434DF6B0
:10232000FF752B400D8906EA05352B434D8806EADB
:1023300005352B43FA4DA84202D0FA4DA84208D1E8
:102340004BF6FF752C408D894FF6FF7606EA851512
:102350002C4384808283CD88A0F84050038470BDD4
:10236000828B4FF2FF331A408283828B4FF6FF73CA
:1023700003EA01231A4382837047F0B50C461546E1
:10238000002200210026078C4EF6FF7C07EA0C078E
:102390000784828B018C4FF6FF7707EA043640F6FC
:1023A000FF473A404FF6FF7707EA05273A434FF6D3
:1023B000FF7707EA03373A43D94FB8420ED0D94FD7
:1023C000B8420BD0B0F1804F08D0D74FB84205D0FB
:1023D000D64FB84202D0D64FB84206D14DF6FF775D
:1023E000394046F48057394305E047F6FF573940F6
:1023F00044F48057394382830184F0BD828B4FF6C9
:10240000F3731A408283828B0A4382837047F0B54C
:102410000C461546002200210026078C4FF6FF6C63
:1024200007EA0C070784828B018C4FF6FF7707EAD7
:1024300004264FF60C773A404FF6FF7707EA03176A
:102440002F433A43B64FB8420ED0B64FB8420BD0E6
:10245000B0F1804F08D0B44FB84205D0B34FB84266
:1024600002D0B34FB84206D14FF6FF57394046F479
:102470008077394305E04FF2FF57394044F48077C5
:10248000394382830184F0BD028B4FF2FF331A403F
:102490000283028B4FF6FF7303EA01231A43028380
:1024A0007047F0B50C461546002200210026078C27
:1024B0004FF6EF7C07EA0C070784028B018C4FF67E
:1024C000FF7707EA041640F6FF473A404FF6FF77DA
:1024D00007EA03373A434FF6FF7707EA05273A43FF
:1024E0008F4FB8420ED08F4FB8420BD0B0F1804F13
:1024F00008D08D4FB84205D08C4FB84202D08C4FD7
:10250000B84206D14FF6DF77394046F0100739431D
:1025100005E04FF65F77394044F0100739430283F6
:102520000184F0BD028B4FF6F3731A400283028BD5
:102530000A4302837047F0B50C461546002200217D
:10254000068C4FF6FE773E400684028B018C4FF6D8
:102550000C7632407E1C06EA03162E433243704E40
:10256000B0420ED06F4EB0420BD0B0F1804F08D0C9
:102570006D4EB04205D06D4EB04202D06C4EB042AE
:1025800006D14FF6FD76314044F00106314305E0B7
:102590004FF6F576314044F0010631430283018461
:1025A000F0BD70B505460C465D4885420ED05D48CD
:1025B00085420BD0B5F1804F08D05B48854205D0ED
:1025C0005A48854202D05A48854200D100E000BFF7
:1025D000208850B92389A28861882846FFF7ABFF7D
:1025E000E1882846FFF79EFF25E0208804280AD1CD
:1025F0002389A28861882846FFF753FFE18828468F
:10260000FFF742FF17E0208808280AD12389A28813
:1026100061882846FFF7FBFEE1882846FFF7EEFEBB
:1026200009E02389A28861882846FFF7A6FEE18891
:102630002846FFF795FE70BD2DE9F04105460C4692
:1026400000260127608808B9022600E00026A0883D
:10265000012801D1022700E001272088A0B92389A1
:10266000A28861882846FFF766FFE1882846FFF7C1
:1026700059FF23893A4631462846FFF712FFE18881
:102680002846FFF701FF13E02389A28861882846C6
:10269000FFF707FFE1882846FFF7F6FE23893A4651
:1026A00031462846FFF747FFE1882846FFF73AFF03
:1026B000BDE8F0810A884B881A438B881A43CB887F
:1026C0001A430B891A434B891A438B891A43A0F882
:1026D000442070474FF6FF71818000210180C18046
:1026E0004180017270470021018041808180C1805A
:1026F000018141818181C181704700210180418038
:10270000012181800021C180018170470021018069
:1027100041808180C18001814181818170470000B9
:10272000002C01400034014000040040000800403B
:10273000000C004021B1028842F00102028004E056
:1027400002884FF6FE731A400280704731B1B0F82C
:10275000442042F40042A0F8442005E0B0F84420B0
:10276000C2F30E02A0F8442070471AB183890B43CC
:10277000838102E083898B43838170478182704724
:1027800041EA0203A0F8483070471AB183890B432D
:10279000838102E083898B438381704701894FF6EF
:1027A000F8721140018170470A46002101894FF6F5
:1027B0008F73194011430181704730B504460D46AF
:1027C00029462046FFF7F0FF208940F007002081CE
:1027D00030BD2DE9F04104460D4616461F46602DDA
:1027E00006D13B46012231462046FFF75AFE05E05E
:1027F0003B46012231462046FFF79DFE29462046F2
:10280000FFF7D2FF208940F007002081BDE8F0816A
:1028100030B50C4600210189C9B24FF6FF7505EAB3
:102820000325154325432943018130BD2DE9F0419E
:1028300005460E4617469846002443463A4631461A
:102840002846FFF7E5FF2C894FF6F870044044F066
:1028500007044FF68F70044044F070042C81BDE8EB
:10286000F081F0B504460D4616461F463B463246FB
:1028700029462046FFF7CCFF208940F48040208184
:10288000F0BD0185828270470A46002101884FF61B
:102890008F731940114301807047F0B50C461546FF
:1028A0001E460021002200230189028B038C4FF673
:1028B000F877394021434FF6FC473A4040F2011780
:1028C0003A434FF6DD773B404FF6FF7707EA0617AE
:1028D0002F433B43018102830384F0BD0A4600215C
:1028E000018B4FF68F7319401143018370470A46DD
:1028F0000021018B48F6FF7319404FF6FF7303EA7E
:1029000002231943018370470A460021818B4FF649
:102910008F7319401143818370470A460021818BD0
:1029200048F6FF7319404FF6FF7303EA0223194379
:102930008183704721B1028842F08002028004E066
:1029400002884FF67F731A400280704721B1828857
:1029500042F00402828004E082884FF6FB731A4042
:102960008280704721B1828842F00802828004E0B0
:1029700082884FF6F7731A408280704721B18288AF
:1029800042F00102828004E082884FF6FE731A4012
:10299000828070470A460021018B4FF6F773194079
:1029A0001143018370470A460021018B4FF2FF73E8
:1029B00019404FF6FF7303EA02231943018370475E
:1029C0000A460021818B4FF6F7731940114381832A
:1029D00070470A460021818B4FF2FF7319404FF672
:1029E000FF7303EA02231943818370470A460021DB
:1029F000018B4FF6FB7319401143018370470A4660
:102A00000021018B4FF6FF3319404FF6FF7303EAA5
:102A100002231943018370470A460021818B4FF638
:102A2000FB7319401143818370470A460021818B53
:102A30004FF6FF3319404FF6FF7303EA02231943A1
:102A4000818370470A460021018B4FF67F7319403E
:102A50001143018370470A460021018BC1F30E0127
:102A60004FF6FF7303EA02231943018370470A46B6
:102A70000021818B4FF67F7319401143818370478A
:102A80000A460021818BC1F30E014FF6FF7303EA62
:102A900002231943818370470A460021018C4FF6B7
:102AA000FD7319401143018470470A460021018CCF
:102AB0004FF6F77319401143018470470A4600210D
:102AC000018C4FF6DF7319404FF6FF7303EA0213D0
:102AD0001943018470470A460021018C4FF67F7329
:102AE00019404FF6FF7303EA02131943018470473C
:102AF0000A460021018C4FF6FF5319404FF6FF7331
:102B000003EA02231943018470470A460021018C1D
:102B10004FF2FF7319404FF6FF7303EA0223194384
:102B2000018470470A460021018C4DF6FF7319405D
:102B30004FF6FF7303EA023319430184704730B53F
:102B4000002301248C40A3B2048C9C430484048C95
:102B500002FA01F5ADB22C43048430BD30B5002338
:102B600004248C40A3B2048C9C430484048C02FA99
:102B700001F5ADB22C43048430BD70B5034600208E
:102B800000241846183001258D40ACB21D8CA54399
:102B90001D8409B1082909D100EB6100056825F001
:102BA000700505600568154305600EE00D1FC5F34F
:102BB0004E052844056825F4E045056005684FF694
:102BC000FF7606EA02263543056070BD21B1028812
:102BD00042F00202028004E002884FF6FD731A40C0
:102BE0000280704721B1028842F00402028004E0B2
:102BF00002884FF6FB731A400280704721B1828829
:102C000042F08002828004E082884FF67F731A408F
:102C10008280704702884FF6F7731A40028002885C
:102C20000A430280704782884FF68F731A40828071
:102C300082880A438280704702894FF6F8731A40EF
:102C4000028102890A430281704702894FF67F732D
:102C50001A40028102890A430281704781847047C9
:102C600081857047818670470187704781877047EB
:102C7000A0F84010704702884FF6FF431A400280C8
:102C800002880A43028070470146888E70470146D9
:102C9000088F70470146888F70470146B1F84000A1
:102CA00070470146888C70470146088D7047024680
:102CB0000020138A0B400BB1012000E00020704778
:102CC000CA430282704730B5024600200023002428
:102CD000158A05EA0103958905EA010413B10CB1CF
:102CE000012000E0002030BDCA430282704700008E
:102CF00001460020FE4A106800F0380008431060CA
:102D00007047FB49096821F00801F94A1160114632
:102D10000968014311607047F549096821F0100105
:102D2000F34A116011460968014311607047F14888
:102D3000EF494860F04848607047EE48EC49486009
:102D4000ED4848607047EA48006940F08000E84973
:102D500008617047E648006940F08000E449086176
:102D600070470420E249C96801F0010109B101205E
:102D70000EE0DF49C96801F0040109B1022007E053
:102D8000DB49C96801F0100109B1032000E004200B
:102D9000704700B502460423FFF7E3FF034603E054
:102DA000FFF7DFFF0346521E012B01D1002AF7D1A6
:102DB00002B90523184600BD30B5044604254FF47A
:102DC0003020FFF7E6FF0546042D17D1C8480069FB
:102DD00040F00200C649086108464461006940F0BD
:102DE000400008614FF43020FFF7D3FF0546C0488C
:102DF000006941F6FD710840BD490861284630BDB3
:102E000010B504244FF43020FFF7C3FF0446042C10
:102E100016D1B748006940F00400B549086108467A
:102E2000006940F0400008614FF43020FFF7B1FF27
:102E30000446AF48006941F6FB710840AC4908619F
:102E4000204610BD00B502460423FFF78AFF034663
:102E500003E0FFF786FF0346521E012B01D1002A33
:102E6000F7D102B90523184600BD10B504244FF46C
:102E70003020FFF7E7FF0446042C16D19C48006978
:102E800040F004009A4908610846006940F040009B
:102E900008614FF43020FFF7D5FF044694480069DD
:102EA00041F6FB71084092490861204610BD0020A0
:102EB0008F49C96901F0020109B1012000E0002039
:102EC000704730B5A5250424FFF7F1FF00B10025B8
:102ED0004FF43020FFF75DFF0446042C3AD18548BB
:102EE00083498860844888600846006940F0200073
:102EF00008610846006940F0400008614FF4302046
:102F0000FFF747FF0446042C1BD17948006941F6BE
:102F1000DF710840764908610846006940F01000FA
:102F2000086176480580E002FFF733FF0446052C70
:102F300010D06F48006941F6EF7108406C49086194
:102F400008E0052C06D06A48006941F6EF71084098
:102F500067490861204630BD78B506460C46042511
:102F600000200090E802FFF714FF0546042D24D14D
:102F70005F48006940F001005D4908613480E80263
:102F8000FFF707FF0546042D10D1B01C0090200C60
:102F900000990880E802FFF7FCFE054654480069E6
:102FA00041F6FE7108405249086106E05048006948
:102FB00041F6FE7108404E490861284678BD70B55B
:102FC00004460D460426F002FFF7E3FE0646042EF3
:102FD00011D14748006940F001004549086125804A
:102FE000F002FFF7D6FE06464148006941F6FE7141
:102FF00008403F490861304670BD70B505460E4631
:103000000424E002FFF7C5FE0446042C17D139481A
:1030100037498860384888600846006940F01000E9
:1030200008612E80E002FFF7B4FE0446052C06D0AE
:103030002F48006941F6EF7108402D49086120468C
:1030400070BD2DE9F04304464FF6FF763746B04693
:10305000B1460425E443E6B2C4F30727C4F30748A6
:103060004FEA1469E802FFF794FE0546042D49D1A2
:1030700020481F498860204888600846006940F061
:1030800010000861FF2E06D01C4808300680E802B8
:10309000FFF77FFE0546042D08D1FF2F06D0174805
:1030A0000A300780E802FFF774FE0546042D0AD1B6
:1030B000B8F1FF0F07D011480C30A0F80080E802EB
:1030C000FFF767FE0546042D0AD1B9F1FF0F07D0BF
:1030D0000A480E30A0F80090E802FFF75AFE0546B5
:1030E000052D0FD00248006941F6EF71084007E056
:1030F0000020024023016745AB89EFCD00F8FF1F98
:10310000664908612846BDE8F08330B505460424C9
:103110004FF43020FFF73DFE0446042C41D16048B7
:103120005E4988605F4888600846006940F020007A
:1031300008610846006940F0400008614FF4302003
:10314000FFF727FE0446042C22D15448006941F6BB
:10315000DF710840514908610846006940F01000DD
:1031600008611DB100205049088002E0A5204E49A9
:1031700008804FF43020FFF70CFE0446052C10D0D9
:103180004648006941F6EF7108404449086108E08B
:10319000052C06D04148006941F6DF7108403F49DF
:1031A0000861204630BDF0B505460E46174604249A
:1031B0003B483A4988603B488860E002FFF7E9FDF8
:1031C0000446042C19D13548006940F010003349F9
:1031D000086147F0F800304328433349891C0880D0
:1031E000E002FFF7D6FD0446052C06D02B48006907
:1031F00041F6EF710840294908612046F0BD274893
:10320000C069800870472548006A7047002023493C
:10321000096801F0200109B1012000E00020704799
:1032200029B11E4A126902431C4B1A6104E01B4A71
:1032300012698243194B1A61704701460020012927
:1032400008D1164AD26902F001020AB1012008E051
:10325000002006E0114AD2680A400AB1012000E0CD
:10326000002070470D49C860704704200B49C968A9
:1032700001F0010109B101200EE00849C96801F01F
:10328000040109B1022007E00449C96801F01001F6
:1032900009B1032000E00420704700000020024034
:1032A00023016745AB89EFCD00F8FF1F10B504215E
:1032B0007B48FEF712F808217A48FEF710F810BD97
:1032C00010B504217648FEF70AF808217548FEF784
:1032D00004F810BD08B501214FF48470FEF70CFA14
:1032E00010208DF8030003208DF802004FF4805069
:1032F000ADF8000069466C48FDF742FF012211035A
:103300006948FDF7EEFF04208DF803004002ADF898
:10331000000069466348FDF733FFFDF70CFA08BD6E
:1033200038B50446012C12D10003ADF8000003208B
:103330008DF8020010208DF8030069465948FDF70A
:103340001FFF002221035748FDF7CBFF12E04FF487
:103350008050ADF8000003208DF8020010208DF899
:10336000030069464F48FDF70BFF012211034D484A
:10337000FDF7B7FF38BD2DE9F04105460E4617466B
:1033800000224FF480514848FDF7ABFF45F0800024
:10339000FDF729FA002404E0305DFDF724FA601CF3
:1033A000C4B2BC42F8DB012211033F48FDF799FF8C
:1033B000BDE8F08113B50446012201A92046FFF7BC
:1033C000DAFF1CBD70B504460D462A462146002092
:1033D000FFF7D1FF70BD2DE9F04105460E461746B7
:1033E00000224FF480513048FDF77BFF05F07F004D
:1033F000FDF7F9F9002405E00020FDF7F4F9305558
:10340000601CC4B2BC42F7DB012211032648FDF761
:1034100068FFBDE8F08170B504460D4601222946DB
:103420002046FFF7D8FF70BD70B504460D462A460A
:1034300021460020FFF7CFFF70BD10B54FF40061AB
:103440001848FDF730FF10BD10B54FF480611748E4
:10345000FDF729FF10BD10B54FF400611348FDF7CB
:1034600022FF10BD10B54FF480511048FDF71BFF2F
:1034700010BD10B54FF400510C48FDF714FF10BDFE
:1034800010B54FF480410948FDF70DFF10BD10B590
:10349000044614B1FFF714FF01E0FFF707FF10BD6A
:1034A000001C014000080140000C014000140140D4
:1034B00010B50446E6480078A04200D110BDE448AB
:1034C0000470E4480470007801282BD1002001F03A
:1034D000BFFBE1480068407800F07F0040F08000CA
:1034E000DD4909684870DC48006841780120FFF731
:1034F00061FF012001F0ACFB0020D749096881F889
:103500003F00D549096881F840000222D24801688D
:103510003F314020FFF72FFF6F22D0490120FFF7F6
:103520005AFF18E0002001F093FBCB480068407878
:1035300000F07F00C84909684870C74800684178B2
:103540000120FFF737FF012001F082FB6F22C34902
:103550000120FFF740FF00BFB0E710B50120FFF7E3
:10356000DFFEBF48046800BFBD480068001BFBD0F9
:103570000020FFF7D5FEBA48046800BFB8480068CD
:10358000001B0628FAD310BD08B5B448401EB54943
:103590000860B1490860FFF79DFEFFF7DEFF69464E
:1035A0000620FFF738FF05E0AFA002F009FD642018
:1035B000FDF72BFC9DF800006C28F5D10120A549F2
:1035C000087008460078FFF773FF01F075FB08BD2F
:1035D000A0480078704710B504469E48007818B996
:1035E000204600F04FF902E0204601F031FB10BD0B
:1035F00010B59848007810B900F02FFA10BD01F00E
:10360000CDFBFBE710B59348007810B900F084FAC1
:1036100010BD01F0DCFBFBE710B58E48007810B957
:1036200000F06EFA10BD01F0C6FBFBE710B589484B
:10363000007810B900F085FA10BD01F0FEFBFBE741
:1036400010B58448007808B900BFFEE701F0F8FB28
:1036500010BD10B57F48007810B900F075FA10BDA4
:1036600001F0F2FBFBE710B57A48007810B900F0E2
:103670006EFA10BD00BFFEE710B57648007818B9A5
:10368000012000F067FA02E0012001F0E0FB10BD2C
:1036900070B504460D466F48007820B9294620468B
:1036A00000F060FA03E02946204601F0D8FB70BD27
:1036B00070B504460D466748007820B92946204673
:1036C00000F05FFA03E02946204601F0D7FB70BD09
:1036D00010B56048007810B900F0A3FA10BD01F0F1
:1036E000E3FBFBE710B504465A48007818B92046BA
:1036F00000F030FA02E0204601F0A9FB10BD10B541
:103700005448007810B900F08FFA10BD01F0CFFBDB
:10371000FBE710B501F08AFE10BD10B501F0ABFE5D
:1037200010BD10B501F020FF10BD70B504460D4668
:103730002946204601F05BFF70BD70B504460D467A
:1037400000234DA22946204601F0AAFF70BD10B506
:103750000446204602F043F810BD10B5044620464A
:1037600002F04DF810BD30B502460B464FF0FF3069
:10377000002108E0545C4440E4B2404D55F8244038
:1037800084EA1020491C9942F4D3C043040E3C4DF6
:103790002C70040C6C70040AAC70E87030BD70B50D
:1037A00004460D4629462046FFF7DDFF0123344A33
:1037B0002946204601F074FF70BD38B504460D4619
:1037C000002000906946204601F011FF9DF800009E
:1037D000042801DA022038BD9DF80000011F2046B0
:1037E000FFF7C1FF9DF80000F02801DD0320F2E79C
:1037F0009DF80000011F2046FFF7B5FF9DF800006F
:10380000001F205C1E49097888421DD19DF80000E8
:10381000C01E205C1A494978884215D19DF80000E5
:10382000801E205C1649897888420DD19DF80000E1
:10383000401E205C1249C978884205D19DF80000DD
:10384000001F28700020C6E7002028700120C2E772
:103850006102002060020020E4020020D206002065
:103860005C020020840200204861726420535049A9
:1038700020457272210D0A0030303000147D00089E
:103880006202002070B504460025F74800684078C1
:1038900020F0F800F54908700846007884421CD0F2
:1038A000032C01D1012500E00025F1480078854274
:1038B00004D0EF4805702846FFF7E9FDEA480068A4
:1038C000407800F0F8002043E74909684870E6486E
:1038D000006841780120FFF76DFD70BD10B5E2482A
:1038E000016842314220FFF796FD10BD10B500205F
:1038F000E0490870FFF7F2FF6F22DF490120FFF770
:103900006AFD0020D84909684870D74800684178A6
:103910000120FFF74FFD2020D34909688872D24863
:103920000068817A0A20FFF745FD2020CE4909680A
:103930000873CD480068017B0C20FFF73BFDCF48A2
:10394000407E012804D11E20C7490968487303E05E
:103950000E20C549096848730820C349096881F8E1
:103960002600AA20C0490968C877FF20BE49096817
:1039700008749320BC49096881F827006920BA4976
:10398000096881F828008120B749096881F8290071
:103990007E20B549096881F82A009620B249096855
:1039A00081F82B00B548007E802141EA0010AE4925
:1039B000096881F8300000F0ACFFB048807EAA4969
:1039C000096881F832006F22AB490120FFF7D3FC70
:1039D000AA49086800F030FCA849486800F0CCFC0F
:1039E000A649886800F012FDA448002102699E489B
:1039F0000068123000F0F5FEA048002142699A48A4
:103A00000068133000F0EDFE002001F071F89B48D3
:103A100000689B4988420DD9002001F015F800206C
:103A200000F0D5FF0E209549087391F90C0000F0C5
:103A300044FD0CE0802001F007F8012000F0C7FFF2
:103A400014208E49087391F90C0000F036FD012016
:103A5000FFF718FF00F03EFC10BD10B5824801686A
:103A6000491C0120FFF7D7FC7F480068407820F010
:103A7000F80010BD2DE9F04702227B4801681D3196
:103A80001D20FFF7A8FC78490968897F764A1268EB
:103A9000527F41EA022003F0F4FC804603F094FCDC
:103AA000824603F0EEFC06460022764B03F050FD02
:103AB000044603F089FCBDE8F0872DE9F0470222B7
:103AC000694801681B311B20FFF785FC66490968BE
:103AD000097F654A1268D27E41EA022003F0D1FCD8
:103AE000804603F071FC824603F0CBFC06460022C0
:103AF000644B03F02DFD044603F066FCBDE8F0873F
:103B000010B5594801680C310C20FFF784FC564869
:103B10000068007B400910BD70B553480168113141
:103B20001120FFF778FC50490968487C03F0C0FC7D
:103B3000044600224FF0804303F0EEFA81F000418A
:103B400070BD514800787047504903C970475048CC
:103B50000068704747490870704700B50120FFF7BB
:103B6000F9FF00BD70B505460C464A480088208024
:103B700000204849088022884749284602F09CFADC
:103B800070BD70B504460D46444805800288214644
:103B9000414802F091FA07203649087070BD30B5EF
:103BA0003148006890F8270000F00700421C2E48BA
:103BB000006890F83000C3092B48006890F8300086
:103BC00000F0060008B1012000E00020044626486D
:103BD000006890F832102448006890F8300000F037
:103BE0001000102801D1022000E000200546D01866
:103BF00020440844284480B230BD1B48006890F837
:103C00002600194B1B6893F8253040EA032116481B
:103C1000006890F8270000F00700421C881880B266
:103C200070471448007870472DE9F04F8BB00120A1
:103C30000990104800780C287ED2DFE800F00607D3
:103C4000A3FDFCFBFAF9F8F7F6F5DFE20648006899
:103C500090F8300000F01000102821D14C200249CB
:103C6000096881F8400020E084020020C0020020A2
:103C7000C102002089020020D20600206802002034
:103C8000008F423380844E40AC020020A00200200E
:103C9000A80200209802002041070020B80200205E
:103CA0000C20FE49096881F84000E120FB490968C1
:103CB00081F841000222F948016840314020FFF7B5
:103CC0005AFB0520FFF7DEFD4FF48071F44802F047
:103CD00038FAF449486803F0EBFBCDE90201FFF73D
:103CE0005EFF019003F0E4FB80460022EE4B03F000
:103CF0002FFC0646DDE9022303F00EFA0022EB4B0F
:103D0000CDE9040103F024FCCDE9060103F0D8F865
:103D1000089003F0B6FB04460022E54B03F040F99F
:103D2000824603F081FB80B2E249086008460068E1
:103D300000EB5000086000E067E208460068DE49DA
:103D40000860DE480068DE490860DE490860A0209F
:103D5000D249096881F83500D048006890F83510DC
:103D60003520FFF727FB0020D7490870D749087096
:103D7000D7490870D7490870D74908800220D74929
:103D8000087043E2FFF775FB012809D1CE4800789F
:103D900030B90120CC490870C8480068C94908609A
:103DA000FFF759FB01281ED1C748007801281AD116
:103DB000C6480078B8B90120C4490870FFF7ACFEC6
:103DC000C74A03C2FFF779FEC6490860FFF798FEAD
:103DD000C5490870B9480068B9490860B949086020
:103DE0000320BE490870B9480078B8B9B6480078D1
:103DF000012813D1B1480068B2490968401AAE4998
:103E0000096888420AD90120B4490870A3480068AB
:103E1000407B40F020010D20FFF7CCFAAB48007842
:103E2000D8B9A948007808E0E9E1E2E195E160E16C
:103E30000FE1FBE0E7E0DDE010E070B9A4480078B6
:103E400058B99E4800689E490968401A994909680E
:103E5000884202D90520A1490870D7E19E48008810
:103E6000B0F5807F03DD06209C490870CEE1FFF7A6
:103E7000EBFA012853D198480088A8B995480078F2
:103E800090B98648006890F8300000F080008028E3
:103E900004D101219048FFF7C7FA05E07F48006888
:103EA00090F832008C4908808B480088894909784D
:103EB000401A7A49096891F8351001F03F018842AB
:103EC00017DD764A126892F8352002F03F01744AF5
:103ED000804B1B78D018FFF7A7FA7048006890F85D
:103EE000350000F03F007B490978084479490870A3
:103EF00015E0794A1278774B1B78D21AD1B2684A0A
:103F0000744B1B78D018FFF78FFA7348007871490B
:103F10000978401A6F49097808446E490870FFF71C
:103F20008CFA012856D165480068654908606A48DE
:103F3000008890BB6748007878BB5848006890F8C4
:103F4000300000F08000802804D101216248FFF792
:103F50006BFA05E05148006890F832005E4908802D
:103F60005D4A12785B4B1B78D21AD1B24C4A594B3E
:103F70001B78D018FFF758FA574800785549097848
:103F8000401A5449097808445249087001205049A0
:103F900008700420514908701CE0FFE74E4A12786F
:103FA0004C4B1B78D21AD1B23D4A4A4B1B78D018E1
:103FB000FFF73AFA4848007846490978401A4549D7
:103FC00009780844434908700120414908700420D9
:103FD000424908703E48007858B938480068384966
:103FE0000968401A33490968884202D905203B49CB
:103FF00008700BE10020374908700120374908702C
:104000000220099002E100203249087032490880FC
:1040100022480068407B40F020010D20FFF7CAF9DC
:1040200001202E49087003200990EFE00020294963
:1040300008702949088019480068407B40F0200139
:104040000D20FFF7B7F901202449087006200990D8
:10405000DCE001201149096881F8400020200F4967
:10406000096881F8410002220C4801684031402073
:10407000FFF781F998200949096881F83500074858
:10408000006890F835103520FFF794F90320FFF70A
:10409000F9FB082011490870002027E08402002065
:1040A00041070020680200200000204000408F40AF
:1040B0000000F03F8C020020900200205C020020F3
:1040C000B0020020B40200209402002095020020DB
:1040D000960200209A020020980200208902002007
:1040E000A0020020A8020020AC0200204A4908706B
:1040F0008CE0FFF7B7F901282ED14848006890F806
:10410000300000F08000802803D101214448FFF7EF
:1041100059F943480088002808DD414800884028B4
:1041200004DC3F4800783F49087002E020203D4908
:1041300008703C4801783C48FFF744F9364800785D
:1041400038490978084434490870384800683849C3
:10415000086009203749087058E0FFF775F970BB0F
:104160002F4800882C490978401A2E49097888423E
:104170000FDD2D49284A127888182A490978FFF757
:1041800021F9254800782749097808442249087010
:1041900015E0234A1278204B1B78D21AD1B2224A5A
:1041A0001D4B1B78D018FFF70DF91D4800781A49F0
:1041B0000978401A18490978084417490870FFF728
:1041C0003CF9012809D119480068194908600A20FA
:1041D000184908700120FFF755FB1448006814497E
:1041E0000968401AB0F57A7F02D90B20114908708E
:1041F0000CE000200F4908700420099006E0002020
:104200000C4908700520099000E000BF00BF099824
:104210000BB0BDE8F08F00009B020020840200205C
:10422000B802002088020020410700205C02002024
:10423000BC020020890200202DE9F0410446FB4821
:104240000460204603F034F905460022F84B02F0E2
:1042500063FF074603F0E8F80446200CF5490968B7
:104260008871200AF3490968C871F24909680C721B
:104270000322F0480168891D0620FFF77CF8BDE89D
:10428000F0812DE9F0410322EA480168891D0620EA
:10429000FFF7A1F8E748006880790004E54909685C
:1042A000C97940EA0120E3490968097A0843DF49EE
:1042B0000860086803F0FCF806460022DC4B03F0B7
:1042C00047F9044603F0B0F8D8490860084600688A
:1042D000BDE8F08138B569460920FFF79CF8FFF783
:1042E000D0FF04460020D34909684872D1480068CD
:1042F000417A0920FFF75EF8CF48FFF79DFFCD48D0
:1043000001683B313B20FFF786F8CA48006890F807
:104310003B0000F0BF0040F04000C649096881F84A
:104320003B00C448006890F83B103B20FFF742F880
:10433000C04801683B313B20FFF76DF805E0BD4800
:1043400001683B313B20FFF766F8BA48006890F8F7
:104350003B0000F020002028F1D09DF80000B54976
:1043600009684872B3480068417A0920FFF722F8CB
:104370002046FFF761FF38BD2DE9F0410446AB4808
:104380004460204603F094F805462A460B46002078
:10439000AA4902F0C1FE074603F046F884B2200A9B
:1043A000A44909688870A3490968CC700222A14811
:1043B0000168891C1046FEF7DEFFBDE8F0812DE99B
:1043C000F04102229B480168891C1046FFF703F860
:1043D00098480068C07897490968897840EA0120C0
:1043E00092494860486803F063F8064632460B4637
:1043F0000020924902F090FE044603F015F880B2C6
:104400008A49486008464068BDE8F0812DE9F041DE
:1044100004468648846087480168091D0420FEF729
:10442000FAFF204603F044F805460022804B02F0D4
:1044300073FE074602F0F8FF84B27E4800680079F8
:1044400000F0C000210A21F0C00108437949096841
:104450000871784909684C71022276480168091D83
:104460000420FEF788FFBDE8F0812DE9F04102222B
:1044700070480168091D0420FEF7ADFF6D48006813
:1044800000796FF0C00101EA00206A4909684979A2
:10449000084366498860886803F00AF806460022E7
:1044A000634B03F055F8044602F0BEFF80B25F494B
:1044B000886008468068BDE8F08110B504465D4814
:1044C000016809310920FEF7A6FF5A4801684D31FD
:1044D0004D20FEF7A0FF57480068407A00F08000AA
:1044E000802841D15348006890F84D0000F08700C3
:1044F00087281CD1052C00DA0524142C00DD142497
:104500004C480068407A00F08F0040F07000494944
:104510000968487247480068407A00F0F000611F5F
:1045200001F00F0108434349096848723AE0022C40
:1045300000DA0224112C00DD11243E480068407A84
:1045400000F08F0040F070003A490968487239481D
:104550000068407A00F0F000A11E01F00F0108434E
:104560003449096848721DE0B4F1FF3F01DA4FF0A9
:10457000FF340E2C00DD0E242E480068407A00F037
:104580008F0040F070002B49096848722948006884
:10459000407A00F0F000611C01F00F01084325494A
:1045A0000968487223480068417A0920FEF702FF33
:1045B0001E48047310BD10B51E480168093109205A
:1045C000FEF729FF1B4801684D314D20FEF723FF00
:1045D00018480068407A00F08000802819D11548FA
:1045E000006890F84D0000F00700072808D1114836
:1045F0000068407A20F0F000401D0C49087310E07C
:104600000C480068407A20F0F000801C07490873CD
:1046100007E008480068407A20F0F000401E034997
:104620000873024890F90C0010BD000068020020D9
:1046300080844E4084020020008F423380847E417B
:104640002DE9FF5F83468A46002018BB0AF102006D
:1046500002F017FF064632460B4600204FF080411D
:1046600001F042FFCDE90001584602F021FF8046EB
:10467000DDE9002302F06CFF02460B46CDE90201A2
:104680000020FD4902F048FD044602F0CDFE04B0D2
:10469000BDE8F09F0AF1030002F0F3FE02460B466C
:1046A000CDE9000100204FF0804101F01DFFCDE970
:1046B0000201584602F0FCFE0646DDE9022302F044
:1046C00047FF044622460B460020EB4902F024FD3A
:1046D000804602F0A9FEDAE72DE9F74F88B08A4656
:1046E00093460024A14600BF0027DFF8908300BF57
:1046F00072E04FF010096AE0002008BBA01C02F035
:10470000C0FE02460B46CDE9000100204FF080417B
:1047100001F0EAFECDE90401484602F0C9FECDE908
:104720000201DDE9042302F013FF02460B46CDE946
:1047300006010020D04902F0EFFC05460E4620E0BD
:10474000E01C02F09EFE02460B46CDE9000100206F
:104750004FF0804101F0C8FECDE90401484602F067
:10476000A7FECDE90201DDE9042302F0F1FE0246D5
:104770000B46CDE906010020BF4902F0CDFC0546FD
:104780000E46089802F094FE2A463346CDE904010D
:1047900003F06CF821F000413A464346CDE90601AA
:1047A00002F09AFE0FD2089802F082FE2A463346A3
:1047B000CDE9060103F05AF821F0004807468AF8CF
:1047C00000908BF8004009F1040000F0FF09B9F1F6
:1047D000180F91DD601CC4B2082C8ADB0BB0BDE859
:1047E000F08F7CB504460E461546002001900090DF
:1047F000A34800681230844203D106F060002070A4
:1048000001E0002020706A4601A92846FFF764FFF6
:104810009DF80400102804D014280AD018281CD1B0
:1048200011E020789DF8001001F007010843207086
:1048300014E020789DF8001001F0070141F0080114
:10484000084320700AE020789DF8001001F007016D
:1048500041F010010843207000E000BF00BF88480D
:1048600000681230844206D121781220FEF7A2FDA2
:104870008448056105E021781320FEF79BFD8148FF
:1048800045617CBD70B50446002500262078C0F344
:10489000C10020B1012804D0022806D103E010266F
:1048A00004E0142602E0182600E000BF00BF2078D4
:1048B00000F007013046FFF7C3FE05467048006868
:1048C0001230844203D128466E490D6170BD2846DE
:1048D0006C494D61FAE710B504466948016830310A
:1048E0003020FEF798FD6648006890F8300000F030
:1048F000EF0040EA04106249096881F8300060481E
:10490000006890F830103020FEF754FD5D480476C2
:1049100010BD10B55A48016830313020FEF77BFDDC
:104920005748006890F83000C0F3001055490876E9
:104930000846007E10BD10B50446514801680D318F
:104940000D20FEF768FD4E480068407B00F0EF0048
:1049500040EA04104A490968487349480068417BA5
:104960000D20FEF727FD4748447610BD10B544489A
:1049700001680D310D20FEF74EFD41480068407B77
:10498000C0F300103F4948760846407E10BD10B580
:1049900004463B48006880F832403948006890F887
:1049A00032103220FEF706FD3648847610BD10B571
:1049B0003348016832313220FEF72DFD304800685F
:1049C00090F832002F4988760846807E10BD10B5D9
:1049D00004462B4801684D314D20FEF71CFD284848
:1049E000016809310920FEF716FD25480068407A64
:1049F00000F08000802807D1012C0AD187202049AF
:104A0000096881F84D0004E084201D49096881F897
:104A10004D001B48006890F84D104D20FEF7CAFC71
:104A200010BD10B5164801684D314D20FEF7F3FC5E
:104A30001348006890F84D0000F00700072801D1E6
:104A4000012010BD0020FCE710B504460C480168A9
:104A500009310920FEF7DFFC09480068407A00F0C0
:104A60007F00204306490968487205480068417A7A
:104A70000920FEF79FFC10BD80847E41D012634167
:104A8000840200206802002010B56F4801680931D7
:104A90000920FEF7C0FC6C480068407A20F07F00D7
:104AA00010BD10B50446684801680A310A20FEF7B7
:104AB000B2FC65480068807A00F0F00024F0F00154
:104AC00008436149096888725F480068817A0A2052
:104AD000FEF770FC10BD10B55B4801680A310A2072
:104AE000FEF799FC58480068807A20F0F00010BD6D
:104AF00010B50446544801680E310E20FEF78BFCB9
:104B0000002C04DA1F2020EA0404641C64424E488E
:104B10000068807B04F01F0140EAC1004A4909682F
:104B2000887349480068817B0E20FEF743FC10BD66
:104B300010B5454801680E310E20FEF76CFC424866
:104B40000068807BC41004F01000102804D11F20DE
:104B500020EA0404641C6442204610BD70B50024A1
:104B6000394801683B313B20FEF755FC3648006868
:104B700090F83B0000F0FE003349096881F83B00E3
:104B80003148006890F83B103B20FEF713FC2E489C
:104B90000168491C0120FEF73EFC2B48006845785F
:104BA0000420294909684870274800684178012095
:104BB000FEF700FC2548066800BF24480068801BFB
:104BC000FBD0214801683B313B20FEF724FC1E4806
:104BD000006890F83B0000F0FE00401C1A4909688C
:104BE00081F83B001848006890F83B103B20FEF726
:104BF000E1FB154801683C313C20FEF70CFC1248F3
:104C0000006890F83C0000F07F040F48006890F8BE
:104C10003C0000F08000802801D1604244B2294667
:104C20000120FEF7C7FB204670BD10B50446FFF714
:104C300095FF201A40B210BD10B50446FFF78EFF55
:104C4000204440B210BD0000840200205C0200201D
:104C500070B504460025FD480068407820F0F80053
:104C6000FB4908700846007884421CD0032C01D10F
:104C7000012500E00025F7480078854204D0F5487A
:104C800005702846FEF703FCF0480068407800F005
:104C9000F8002043ED4909684870EC480068417805
:104CA0000120FEF787FB70BD10B5E848016841316F
:104CB0004220FEF7B0FB10BD10B50020E649087099
:104CC000FFF7F2FF6F22E5490120FEF784FB202069
:104CD000DE49096808736F22E0490120FEF74BFBAB
:104CE000DF49086800F0DAFDDD49887900F020FF2F
:104CF000DB49C87900F055FFD949087A00F07EFFFA
:104D0000D749487900F0D0FED549487A00F0DAFF5B
:104D100040F2FF3001F0E2F8D149087E01F035F8A9
:104D2000012001F00FF9CE480068CE4988420DD924
:104D3000002001F087F8002001F047F80E20C84954
:104D4000087191F9040000F0F7FD0CE0802001F0FB
:104D500079F8012001F039F81420C149087191F95E
:104D6000040000F0E9FD0120FFF772FF10BD10B54F
:104D70000120FEF7D5FABC48046800BFBA480068B5
:104D8000001BFBD00020FEF7CBFAB748046800BF39
:104D9000B5480068001B0628FAD310BD10B5AB4813
:104DA0000168491C0120FEF736FBA84800684078DE
:104DB00020F0F80010BD10B5A44801680C310C209B
:104DC000FEF729FBA1480068007B400910BD2DE9D2
:104DD000F0419E4801681B311B20FEF71CFBA048D8
:104DE0000068A049884214D298490968C87E02F038
:104DF0005FFB04460D469A4840799C4901EBC00090
:104E0000D0E9006332462046294602F0C9F8BDE8E1
:104E1000F0818E490968C87E02F04AFB04460D46BF
:104E20008F484079924901EBC000D0E900633246D7
:104E30002046294602F0B4F8E9E78E48007870472A
:104E40008D4890F9000070478C4903C9704782492A
:104E50000870704700B50120FFF7F9FF00BD70B57D
:104E600005460C468648008820800020844908803A
:104E700022888449284601F01FF970BD70B50446A8
:104E80000D467748C07A10B97F48058002E0FF20C0
:104E90007D4908807C48028821467A4801F00CF957
:104EA00005206D49087070BD6B480078704738B5B3
:104EB000012400200090684800780C2879D2DFE8AF
:104EC00000F0060779FCFBFAF9F878F7F6F5AAE2A4
:104ED0000120FFF7BDFEBF205C49096848745B48AC
:104EE0000068417C1120FEF765FA5D48C07A012810
:104EF00016D15B48007B5549096881F82400534866
:104F000001681C311C20FEF786FA50490968097FA8
:104F100001F03F015D4A52F8210000F0BFFC04E0BF
:104F2000FF204A49096881F824004848006890F841
:104F300024102420FEF73EFA00204449096881F835
:104F40003F0080204149096881F8400002223F4823
:104F500001683F314020FEF70EFA4148807A01286F
:104F600003D10620FFF774FE0EE038480068C07BCE
:104F700036490968487335480068417B0D20FEF7C3
:104F800019FA0520FFF764FE4FF480713D4801F0E7
:104F9000D8F8354800683E490860314840693D49C5
:104FA0000860314800683C49086002202A490870BE
:104FB00039E237E269461220FEF72DFA9DF800002B
:104FC00000F0400008B335A000F0FAFF2648006862
:104FD000314908602248C07A01280FD11B48016876
:104FE0001C311C20FEF717FA18490968097F01F0E7
:104FF0003F01264A52F8210000F050FC40211220C7
:10500000FEF7D8F90320144908709DF8000000F05D
:105010000200D0B1144800681F4908601048C07AE7
:1050200001280FD1094801681C311C20FEF7F3F953
:1050300006490968097F01F03F01144A52F821002E
:1050400000F02CFC0221122038E039E0E4020020BC
:105050000803002009030020E8020020D2060020F7
:10506000C8020020008F42335C02002068810008E3
:10507000B8810008F8020020EC020020F0020020B5
:10508000EA020020410800200403002008820008F2
:105090002800002000030020FC020020BDD3CAD558
:1050A000B3C9B9A6A3A10D0A00000000B8E19DE1B3
:1050B00078E16BE139E1BAE0B4E012E0FEF77AF9A9
:1050C000FE48807A01280BD1FD480068FD49096837
:1050D000401AFD490968884202D90420FB4908703A
:1050E000A1E1FB48016812311220FEF794F9F8485B
:1050F0000068807C00F0200020280ED120211220A2
:10510000FEF758F9ED48807A012802D1EF4908707E
:1051100002E00220ED49087085E1E848807A012824
:105120002FD1EB480068C07BE94909684873E8481B
:105130000068417B0D20FEF73DF9E048407A0128E8
:105140000DD1E348006890F82200E2490880E04869
:10515000006890F82210E048FEF766F952E0DC485B
:10516000016813311320FEF756F9D9480068C07C56
:10517000D8490880D6480068C17CD748FEF754F962
:1051800040E0D348016810311020FEF744F9CB48C5
:10519000407A012819D1CE48006890F82200CD4904
:1051A0000880CB480068007CC94909684873C84832
:1051B0000068417B0D20FEF7FDF8C548006890F8B7
:1051C0002210C548FEF730F91CE0C14801681331D0
:1051D0001320FEF720F9BE480068C07CBD49088056
:1051E000BB480068007CBA4909684873B848006841
:1051F000417B0D20FEF7DEF8B5480068C17CB6485B
:10520000FEF712F9AD48807A012802D1AF49087043
:1052100002E00220AD490870A9480068AF49086063
:10522000022400E10120A94908700324FBE0A448FE
:105230000068AB4908600120FFF70AFD9F48C07A6B
:1052400001281AD1F520A249096848749B48007BBF
:105250009F49096881F824009D4801681C311C2081
:10526000FEF7D9F89A490968097F01F03F019D4A84
:1052700052F8210000F012FB08E0F7209449096879
:10528000487400209249096881F824009048006819
:1052900090F824102420FEF78DF88D480068417C9A
:1052A0001120FEF787F8904800788949096881F84D
:1052B00022008748006890F822102220FEF77AF832
:1052C000002083490968887381480068817B0E202B
:1052D000FEF770F87E480068807B7D490968487356
:1052E0007B480068417B0D20FEF764F87848006831
:1052F00090F822107848FEF765F841207449096853
:1053000081F83F0040207249096881F8400002227C
:105310006F4801683F314020FEF72DF80320FFF76A
:1053200097FC0620694908707DE069461220FEF767
:1053300072F89DF8000000F0080048B16BA000F082
:105340003FFE08211220FEF735F807205F4908705C
:105350009DF8000000F00800B8B15848C07A012854
:105360000FD15B4801681C311C20FEF754F85849E6
:105370000968097F01F03F015A4A52F8210000F004
:105380008DFA02211220FEF715F84CE04C48006817
:105390005A4908600120FFF75BFC00204B49087068
:1053A000042440E00120FFF753FCFA204849096833
:1053B000487447480068417C1120FDF7FBFF00203E
:1053C0004349096881F83F004149096881F8400074
:1053D00002223F4801683F314020FDF7CCFF072003
:1053E000FFF736FC0A20394908701CE0FEF73AF84E
:1053F000012814D104211220FDF7DCFFFEF739F853
:10540000012808D101211220FDF7D4FF01202F49E6
:105410000870082403E000202C490870072402E0EB
:10542000092400BF00BF00BF204638BD08B569464B
:105430001920FDF7F0FF9DF8000000F0800068B132
:105440009DF80000C043401CC0F385002C49087043
:1054500008460078404240B2087004E09DF8000021
:10546000800827490870264890F9000008BD10B54B
:10547000FFF7A1FC10BD2DE9FC5FFFF7D7FF002867
:1054800053DA1F4890F9000001F0FBFF82468B467B
:105490000A4840791B4901EBC000D0E9006332465D
:1054A0000020194902F054F880460022174B01F001
:1054B00077FD04460022164B2CE00000C8020020B5
:1054C0005C020020FC02002000030020E802002013
:1054D000E4020020EA020020410800202C00002005
:1054E000200000200882000804030020B7A2CBCDD2
:1054F000B3C9B9A6A3A10D0A000000002400002032
:10550000EC020020188100080000244000C065C0A3
:105510000000104001F044FD52465B46CDE9000119
:1055200001F03EFDB94A03C21AE0B94801681A31D8
:105530001A20FDF770FFB6490968887E01F0B8FFB0
:1055400004460D46B3484079B34901EBC000D0E9A9
:10555000006332462046294601F022FDAB4A03C2D1
:10556000AA4903C9BDE8FC9F10B50120FFF770FBF5
:105570009F20A74909684874A5480068417C11200C
:10558000FDF718FFFF20A249096881F82400A04810
:10559000006890F824102420FDF70CFF3F209C4960
:1055A000096881F83F00B0209949096881F84000F6
:1055B0000222974801683F314020FDF7DCFE954804
:1055C000807A012803D10620FFF742FB0EE09048C5
:1055D0000068C07B8E49096848738D480068417B2C
:1055E0000D20FDF7E7FE0520FFF732FB10BD70B57B
:1055F00005460C46FDF721FF012803D1402112206A
:10560000FDF7D8FE8248016812311220FDF703FF32
:105610007F480068807C00F02000202806D12021EF
:105620001220FDF7C7FE0020207070BD7848016889
:1056300010311020FDF7EFFE7648407A012819D18D
:105640007348006890F82200744908807048006828
:10565000007C6F49096848736D480068417B0D20E4
:10566000FDF7A8FE6A48006890F822106C48FDF724
:10567000DBFE13E021461320FDF7CDFE64480068F1
:10568000007C63490968487361480068417B0D20CC
:10569000FDF790FE21782846FDF7C6FE00BFC4E75F
:1056A0002DE9F04706460D461746984606B115B94E
:1056B0000120BDE8F0870120FFF7CAFAF72054491E
:1056C0000968487400205249096881F8240050484C
:1056D000006890F824102420FDF76CFE4C48006808
:1056E000417C1120FDF766FE4948006880F8225091
:1056F0004748006890F82200001DC1B22220FDF743
:1057000059FE002042490968887341480068817B3E
:105710000E20FDF74FFE3E480068807B3C4909683B
:1057200048733B480068417B0D20FDF743FE384835
:10573000006890F822103046FDF744FEB8F1010FE2
:1057400008D1FC2D04DA04213846FDF73BFE01E0C8
:105750000120AEE77F202E49096881F83F00302004
:105760002B49096881F840000222294801683F312D
:105770004020FDF700FE0320FFF76AFA2948016880
:1057800029A000F01DFC2F4C08E0641E4FF000091A
:1057900001E009F10109B9F1640FFAD3FDF74DFEFB
:1057A00008B9002CF1D12748011B27A000F008FC04
:1057B00024B92AA000F004FC02207AE70821122074
:1057C000FDF7F8FD0120FFF743FA1648016827A00E
:1057D00000F0F6FB2DA000F0F3FB002069E710B508
:1057E00004463F210B20FDF7E5FD802000F02AFB59
:1057F000012000F0EAFA60B200F09EF810BD10B58A
:105800000446204600F04AF810BD0000F0020020D7
:10581000E4020020C802002068810008EA0200209B
:10582000410800205C020020BFAACABCB7A2CBCDB1
:10583000CAB1BCE4CEAA09092D2D0974313A2564F8
:105840000D0A00008038010069B5C4D6B5CEAA2083
:105850002D2D202564A3A10D0A000000B7A2CBCDF9
:10586000CAA7B0DC202D2D20320D0A00B3C9B9A67D
:10587000B7A2CBCDCDEAB3C9CAB1BCE4CEAA092D3B
:105880002D0974323A25640D0A000000B7A2CBCD71
:10589000B3C9B9A6202D2D20300D0A002DE9F04105
:1058A0000446FA480460204601F002FE0546002244
:1058B000F74B01F031FC074601F0B6FD0446200C21
:1058C000F44909688871200AF2490968C871F149E8
:1058D00009680C720322EF480168891D0620FDF754
:1058E0004AFDBDE8F0812DE9F0410322E948016855
:1058F000891D0620FDF76FFDE648006880790004E9
:10590000E4490968C97940EA0120E2490968097A4D
:105910000843DE490860086801F0CAFD0646002217
:10592000DB4B01F015FE044601F07EFDD74908600F
:1059300008460068BDE8F08110B50446D548016806
:1059400009310920FDF767FDD24801684C314D202F
:10595000FDF761FDCF480068407A00F080008028A4
:1059600041D1CC48006890F84C0000F087008728AF
:105970001CD1052C00DA0524142C00DD1424C548A4
:105980000068407A00F08F0040F07000C14909685B
:105990004872C0480068407A00F0F000611F01F0D2
:1059A0000F010843BB49096848723AE0022C00DA4B
:1059B0000224112C00DD1124B6480068407A00F062
:1059C0008F0040F07000B34909684872B148006820
:1059D000407A00F0F000A11E01F00F010843AD492C
:1059E000096848721DE0B4F1FF3F01DA4FF0FF345F
:1059F0000E2C00DD0E24A7480068407A00F08F00CE
:105A000040F07000A34909684872A2480068407AD3
:105A100000F0F000611C01F00F0108439D49096886
:105A200048729C480068417A0920FDF7C3FC9748FA
:105A3000047110BD10B59748016809310920FDF7C0
:105A4000EAFC944801684C314D20FDF7E4FC914894
:105A50000068407A00F08000802819D18D480068E5
:105A600090F84C0000F00700072808D1894800682A
:105A7000407A20F0F000401D8449087110E085480C
:105A80000068407A20F0F000801C8049087107E02F
:105A900080480068407A20F0F000401E7B49087181
:105AA0007A4890F9040010BD10B5044679480168A1
:105AB0001D311D20FDF7AFFC76480068407F64F380
:105AC0001F1074490968487772480068417F1D209B
:105AD000FDF770FC6D48447110BD10B56D4801684C
